{"abi":[{"type":"constructor","inputs":[{"name":"factory_","type":"address","internalType":"address"},{"name":"creator_","type":"address","internalType":"address"},{"name":"settlementToken_","type":"address","internalType":"address"},{"name":"resolver_","type":"address","internalType":"address"},{"name":"expirationTime_","type":"uint256","internalType":"uint256"},{"name":"title_","type":"string","internalType":"string"},{"name":"metadataURI_","type":"string","internalType":"string"}],"stateMutability":"nonpayable"},{"type":"function","name":"buyNo","inputs":[{"name":"amount","type":"uint256","internalType":"uint256"}],"outputs":[],"stateMutability":"nonpayable"},{"type":"function","name":"buyYes","inputs":[{"name":"amount","type":"uint256","internalType":"uint256"}],"outputs":[],"stateMutability":"nonpayable"},{"type":"function","name":"claim","inputs":[],"outputs":[{"name":"payout","type":"uint256","internalType":"uint256"}],"stateMutability":"nonpayable"},{"type":"function","name":"claimed","inputs":[{"name":"user","type":"address","internalType":"address"}],"outputs":[{"name":"claimed","type":"bool","internalType":"bool"}],"stateMutability":"view"},{"type":"function","name":"creator","inputs":[],"outputs":[{"name":"","type":"address","internalType":"address"}],"stateMutability":"view"},{"type":"function","name":"expirationTime","inputs":[],"outputs":[{"name":"","type":"uint256","internalType":"uint256"}],"stateMutability":"view"},{"type":"function","name":"factory","inputs":[],"outputs":[{"name":"","type":"address","internalType":"address"}],"stateMutability":"view"},{"type":"function","name":"getPosition","inputs":[{"name":"user","type":"address","internalType":"address"}],"outputs":[{"name":"yes","type":"uint256","internalType":"uint256"},{"name":"no","type":"uint256","internalType":"uint256"},{"name":"hasClaimed","type":"bool","internalType":"bool"}],"stateMutability":"view"},{"type":"function","name":"isExpired","inputs":[],"outputs":[{"name":"","type":"bool","internalType":"bool"}],"stateMutability":"view"},{"type":"function","name":"metadataURI","inputs":[],"outputs":[{"name":"","type":"string","internalType":"string"}],"stateMutability":"view"},{"type":"function","name":"noShares","inputs":[{"name":"user","type":"address","internalType":"address"}],"outputs":[{"name":"shares","type":"uint256","internalType":"uint256"}],"stateMutability":"view"},{"type":"function","name":"resolve","inputs":[{"name":"outcome","type":"uint8","internalType":"enum PredictionMarket.Outcome"}],"outputs":[],"stateMutability":"nonpayable"},{"type":"function","name":"resolvedOutcome","inputs":[],"outputs":[{"name":"","type":"uint8","internalType":"enum PredictionMarket.Outcome"}],"stateMutability":"view"},{"type":"function","name":"resolver","inputs":[],"outputs":[{"name":"","type":"address","internalType":"address"}],"stateMutability":"view"},{"type":"function","name":"settlementToken","inputs":[],"outputs":[{"name":"","type":"address","internalType":"contract IERC20"}],"stateMutability":"view"},{"type":"function","name":"status","inputs":[],"outputs":[{"name":"","type":"uint8","internalType":"enum PredictionMarket.Status"}],"stateMutability":"view"},{"type":"function","name":"title","inputs":[],"outputs":[{"name":"","type":"string","internalType":"string"}],"stateMutability":"view"},{"type":"function","name":"totalDeposited","inputs":[],"outputs":[{"name":"","type":"uint256","internalType":"uint256"}],"stateMutability":"view"},{"type":"function","name":"totalNoShares","inputs":[],"outputs":[{"name":"","type":"uint256","internalType":"uint256"}],"stateMutability":"view"},{"type":"function","name":"totalYesShares","inputs":[],"outputs":[{"name":"","type":"uint256","internalType":"uint256"}],"stateMutability":"view"},{"type":"function","name":"yesShares","inputs":[{"name":"user","type":"address","internalType":"address"}],"outputs":[{"name":"shares","type":"uint256","internalType":"uint256"}],"stateMutability":"view"},{"type":"event","name":"MarketResolved","inputs":[{"name":"resolver","type":"address","indexed":true,"internalType":"address"},{"name":"outcome","type":"uint8","indexed":true,"internalType":"enum PredictionMarket.Outcome"},{"name":"totalDeposited","type":"uint256","indexed":false,"internalType":"uint256"}],"anonymous":false},{"type":"event","name":"SharesPurchased","inputs":[{"name":"buyer","type":"address","indexed":true,"internalType":"address"},{"name":"side","type":"uint8","indexed":true,"internalType":"enum PredictionMarket.Side"},{"name":"amount","type":"uint256","indexed":false,"internalType":"uint256"},{"name":"shares","type":"uint256","indexed":false,"internalType":"uint256"},{"name":"totalYesShares","type":"uint256","indexed":false,"internalType":"uint256"},{"name":"totalNoShares","type":"uint256","indexed":false,"internalType":"uint256"}],"anonymous":false},{"type":"event","name":"WinningsClaimed","inputs":[{"name":"user","type":"address","indexed":true,"internalType":"address"},{"name":"amount","type":"uint256","indexed":false,"internalType":"uint256"}],"anonymous":false},{"type":"error","name":"AlreadyClaimed","inputs":[]},{"type":"error","name":"AmountZero","inputs":[]},{"type":"error","name":"EmptyTitle","inputs":[]},{"type":"error","name":"InvalidExpiration","inputs":[]},{"type":"error","name":"InvalidOutcome","inputs":[]},{"type":"error","name":"MarketAlreadyResolved","inputs":[]},{"type":"error","name":"MarketNotActive","inputs":[]},{"type":"error","name":"MarketNotExpired","inputs":[]},{"type":"error","name":"NoWinningShares","inputs":[]},{"type":"error","name":"NothingToClaim","inputs":[]},{"type":"error","name":"Reentrancy","inputs":[]},{"type":"error","name":"TokenTransferFailed","inputs":[]},{"type":"error","name":"UnauthorizedResolver","inputs":[]},{"type":"error","name":"ZeroAddress","inputs":[]}],"bytecode":{"object":"0x6101206040526001600955348015610015575f5ffd5b506040516121c53803806121c583398181016040528101906100379190610512565b5f73ffffffffffffffffffffffffffffffffffffffff168773ffffffffffffffffffffffffffffffffffffffff16148061009c57505f73ffffffffffffffffffffffffffffffffffffffff168673ffffffffffffffffffffffffffffffffffffffff16145b806100d257505f73ffffffffffffffffffffffffffffffffffffffff168573ffffffffffffffffffffffffffffffffffffffff16145b15610109576040517fd92e233d00000000000000000000000000000000000000000000000000000000815260040160405180910390fd5b5f73ffffffffffffffffffffffffffffffffffffffff168473ffffffffffffffffffffffffffffffffffffffff160361016e576040517fd92e233d00000000000000000000000000000000000000000000000000000000815260040160405180910390fd5b5f8251036101a8576040517fa5bb9bde00000000000000000000000000000000000000000000000000000000815260040160405180910390fd5b4283116101e1576040517ffb2a675200000000000000000000000000000000000000000000000000000000815260040160405180910390fd5b8673ffffffffffffffffffffffffffffffffffffffff1660808173ffffffffffffffffffffffffffffffffffffffff16815250508573ffffffffffffffffffffffffffffffffffffffff1660a08173ffffffffffffffffffffffffffffffffffffffff16815250508473ffffffffffffffffffffffffffffffffffffffff1660c08173ffffffffffffffffffffffffffffffffffffffff16815250508373ffffffffffffffffffffffffffffffffffffffff1660e08173ffffffffffffffffffffffffffffffffffffffff1681525050826101008181525050815f90816102c891906107ee565b5080600190816102d891906107ee565b505f60025f6101000a81548160ff021916908360028111156102fd576102fc6108bd565b5b02179055505f600260016101000a81548160ff02191690836002811115610327576103266108bd565b5b0217905550505050505050506108ea565b5f604051905090565b5f5ffd5b5f5ffd5b5f73ffffffffffffffffffffffffffffffffffffffff82169050919050565b5f61037282610349565b9050919050565b61038281610368565b811461038c575f5ffd5b50565b5f8151905061039d81610379565b92915050565b5f819050919050565b6103b5816103a3565b81146103bf575f5ffd5b50565b5f815190506103d0816103ac565b92915050565b5f5ffd5b5f5ffd5b5f601f19601f8301169050919050565b7f4e487b71000000000000000000000000000000000000000000000000000000005f52604160045260245ffd5b610424826103de565b810181811067ffffffffffffffff82111715610443576104426103ee565b5b80604052505050565b5f610455610338565b9050610461828261041b565b919050565b5f67ffffffffffffffff8211156104805761047f6103ee565b5b610489826103de565b9050602081019050919050565b8281835e5f83830152505050565b5f6104b66104b184610466565b61044c565b9050828152602081018484840111156104d2576104d16103da565b5b6104dd848285610496565b509392505050565b5f82601f8301126104f9576104f86103d6565b5b81516105098482602086016104a4565b91505092915050565b5f5f5f5f5f5f5f60e0888a03121561052d5761052c610341565b5b5f61053a8a828b0161038f565b975050602061054b8a828b0161038f565b965050604061055c8a828b0161038f565b955050606061056d8a828b0161038f565b945050608061057e8a828b016103c2565b93505060a088015167ffffffffffffffff81111561059f5761059e610345565b5b6105ab8a828b016104e5565b92505060c088015167ffffffffffffffff8111156105cc576105cb610345565b5b6105d88a828b016104e5565b91505092959891949750929550565b5f81519050919050565b7f4e487b71000000000000000000000000000000000000000000000000000000005f52602260045260245ffd5b5f600282049050600182168061063557607f821691505b602082108103610648576106476105f1565b5b50919050565b5f819050815f5260205f209050919050565b5f6020601f8301049050919050565b5f82821b905092915050565b5f600883026106aa7fffffffffffffffffffffffffffffffffffffffffffffffffffffffffffffffff8261066f565b6106b4868361066f565b95508019841693508086168417925050509392505050565b5f819050919050565b5f6106ef6106ea6106e5846103a3565b6106cc565b6103a3565b9050919050565b5f819050919050565b610708836106d5565b61071c610714826106f6565b84845461067b565b825550505050565b5f5f905090565b610733610724565b61073e8184846106ff565b505050565b5b81811015610761576107565f8261072b565b600181019050610744565b5050565b601f8211156107a6576107778161064e565b61078084610660565b8101602085101561078f578190505b6107a361079b85610660565b830182610743565b50505b505050565b5f82821c905092915050565b5f6107c65f19846008026107ab565b1980831691505092915050565b5f6107de83836107b7565b9150826002028217905092915050565b6107f7826105e7565b67ffffffffffffffff8111156108105761080f6103ee565b5b61081a825461061e565b610825828285610765565b5f60209050601f831160018114610856575f8415610844578287015190505b61084e85826107d3565b8655506108b5565b601f1984166108648661064e565b5f5b8281101561088b57848901518255600182019150602085019450602081019050610866565b868310156108a857848901516108a4601f8916826107b7565b8355505b6001600288020188555050505b505050505050565b7f4e487b71000000000000000000000000000000000000000000000000000000005f52602160045260245ffd5b60805160a05160c05160e051610100516118746109515f395f81816105d201528181610c5601528181610e410152610f1a01525f81816104a50152610b6601525f81816109d801528181610b2d0152610fac01525f6103f501525f610dfa01526118745ff3fe608060405234801561000f575f5ffd5b5060043610610135575f3560e01c806356bc793e116100b6578063a0270dbc1161007a578063a0270dbc1461032f578063c45a01551461034b578063c884ef8314610369578063d31dbc3e14610399578063da284dcc146103b7578063ff50abdc146103d557610135565b806356bc793e1461027757806358c36e5c146102a75780635ae01f82146102c35780637b9e618d146102e1578063818fa941146102ff57610135565b80631c371e2b116100fd5780631c371e2b146101e1578063200d2ed2146101ff5780632f13b60c1461021d5780634a79d50c1461023b5780634e71d92d1461025957610135565b806302d05d3f1461013957806303ee438c1461015757806304f3bcec14610175578063061dd98d1461019357806316c19739146101af575b5f5ffd5b6101416103f3565b60405161014e9190611252565b60405180910390f35b61015f610417565b60405161016c91906112db565b60405180910390f35b61017d6104a3565b60405161018a9190611252565b60405180910390f35b6101ad60048036038101906101a89190611332565b6104c7565b005b6101c960048036038101906101c49190611387565b6104d4565b6040516101d8939291906113db565b60405180910390f35b6101e96105aa565b6040516101f69190611483565b60405180910390f35b6102076105bd565b60405161021491906114e2565b60405180910390f35b6102256105cf565b60405161023291906114fb565b60405180910390f35b6102436105f9565b60405161025091906112db565b60405180910390f35b610261610684565b60405161026e9190611514565b60405180910390f35b610291600480360381019061028c9190611387565b610b02565b60405161029e9190611514565b60405180910390f35b6102c160048036038101906102bc9190611332565b610b17565b005b6102cb610b25565b6040516102d89190611514565b60405180910390f35b6102e9610b2b565b6040516102f69190611588565b60405180910390f35b61031960048036038101906103149190611387565b610b4f565b6040516103269190611514565b60405180910390f35b610349600480360381019061034491906115c4565b610b64565b005b610353610df8565b6040516103609190611252565b60405180910390f35b610383600480360381019061037e9190611387565b610e1c565b60405161039091906114fb565b60405180910390f35b6103a1610e39565b6040516103ae9190611514565b60405180910390f35b6103bf610e3f565b6040516103cc9190611514565b60405180910390f35b6103dd610e63565b6040516103ea9190611514565b60405180910390f35b7f000000000000000000000000000000000000000000000000000000000000000081565b600180546104249061161c565b80601f01602080910402602001604051908101604052809291908181526020018280546104509061161c565b801561049b5780601f106104725761010080835404028352916020019161049b565b820191905f5260205f20905b81548152906001019060200180831161047e57829003601f168201915b505050505081565b7f000000000000000000000000000000000000000000000000000000000000000081565b6104d15f82610e69565b50565b5f5f5f60065f8573ffffffffffffffffffffffffffffffffffffffff1673ffffffffffffffffffffffffffffffffffffffff1681526020019081526020015f205460075f8673ffffffffffffffffffffffffffffffffffffffff1673ffffffffffffffffffffffffffffffffffffffff1681526020019081526020015f205460085f8773ffffffffffffffffffffffffffffffffffffffff1673ffffffffffffffffffffffffffffffffffffffff1681526020019081526020015f205f9054906101000a900460ff169250925092509193909250565b600260019054906101000a900460ff1681565b60025f9054906101000a900460ff1681565b5f7f0000000000000000000000000000000000000000000000000000000000000000421015905090565b5f80546106059061161c565b80601f01602080910402602001604051908101604052809291908181526020018280546106319061161c565b801561067c5780601f106106535761010080835404028352916020019161067c565b820191905f5260205f20905b81548152906001019060200180831161065f57829003601f168201915b505050505081565b5f6001600954146106c1576040517fab143c0600000000000000000000000000000000000000000000000000000000815260040160405180910390fd5b6002600981905550600160028111156106dd576106dc611410565b5b60025f9054906101000a900460ff1660028111156106fe576106fd611410565b5b14610735576040517f671eb0c500000000000000000000000000000000000000000000000000000000815260040160405180910390fd5b60085f3373ffffffffffffffffffffffffffffffffffffffff1673ffffffffffffffffffffffffffffffffffffffff1681526020019081526020015f205f9054906101000a900460ff16156107b6576040517f646cf55800000000000000000000000000000000000000000000000000000000815260040160405180910390fd5b5f5f600160028111156107cc576107cb611410565b5b600260019054906101000a900460ff1660028111156107ee576107ed611410565b5b0361083d5760065f3373ffffffffffffffffffffffffffffffffffffffff1673ffffffffffffffffffffffffffffffffffffffff1681526020019081526020015f2054915060035490506108f4565b6002808111156108505761084f611410565b5b600260019054906101000a900460ff16600281111561087257610871611410565b5b036108c15760075f3373ffffffffffffffffffffffffffffffffffffffff1673ffffffffffffffffffffffffffffffffffffffff1681526020019081526020015f2054915060045490506108f3565b6040517fc74a206d00000000000000000000000000000000000000000000000000000000815260040160405180910390fd5b5b5f810361092d576040517f843f941b00000000000000000000000000000000000000000000000000000000815260040160405180910390fd5b5f8203610966576040517f969bf72800000000000000000000000000000000000000000000000000000000815260040160405180910390fd5b600160085f3373ffffffffffffffffffffffffffffffffffffffff1673ffffffffffffffffffffffffffffffffffffffff1681526020019081526020015f205f6101000a81548160ff02191690831515021790555080600554836109ca9190611679565b6109d491906116e7565b92507f000000000000000000000000000000000000000000000000000000000000000073ffffffffffffffffffffffffffffffffffffffff1663a9059cbb33856040518363ffffffff1660e01b8152600401610a31929190611717565b6020604051808303815f875af1158015610a4d573d5f5f3e3d5ffd5b505050506040513d601f19601f82011682018060405250810190610a719190611768565b610aa7576040517f045c4b0200000000000000000000000000000000000000000000000000000000815260040160405180910390fd5b3373ffffffffffffffffffffffffffffffffffffffff167f1a31e733a172afcf46074b3106c17f0c298e226442682a03c1e99ce256139ec284604051610aed9190611514565b60405180910390a25050600160098190555090565b6007602052805f5260405f205f915090505481565b610b22600182610e69565b50565b60045481565b7f000000000000000000000000000000000000000000000000000000000000000081565b6006602052805f5260405f205f915090505481565b7f000000000000000000000000000000000000000000000000000000000000000073ffffffffffffffffffffffffffffffffffffffff163373ffffffffffffffffffffffffffffffffffffffff1614610be9576040517f66fba97000000000000000000000000000000000000000000000000000000000815260040160405180910390fd5b5f6002811115610bfc57610bfb611410565b5b60025f9054906101000a900460ff166002811115610c1d57610c1c611410565b5b14610c54576040517faa43cb2d00000000000000000000000000000000000000000000000000000000815260040160405180910390fd5b7f0000000000000000000000000000000000000000000000000000000000000000421015610cae576040517f671eb0c500000000000000000000000000000000000000000000000000000000815260040160405180910390fd5b60016002811115610cc257610cc1611410565b5b816002811115610cd557610cd4611410565b5b14158015610d075750600280811115610cf157610cf0611410565b5b816002811115610d0457610d03611410565b5b14155b15610d3e576040517fc74a206d00000000000000000000000000000000000000000000000000000000815260040160405180910390fd5b600160025f6101000a81548160ff02191690836002811115610d6357610d62611410565b5b021790555080600260016101000a81548160ff02191690836002811115610d8d57610d8c611410565b5b0217905550806002811115610da557610da4611410565b5b3373ffffffffffffffffffffffffffffffffffffffff167fa6ad0a6c1148f1c08aa1bc9d34e8b40bfc194f8ae52c906898ba76f637097737600554604051610ded9190611514565b60405180910390a350565b7f000000000000000000000000000000000000000000000000000000000000000081565b6008602052805f5260405f205f915054906101000a900460ff1681565b60035481565b7f000000000000000000000000000000000000000000000000000000000000000081565b60055481565b600160095414610ea5576040517fab143c0600000000000000000000000000000000000000000000000000000000815260040160405180910390fd5b60026009819055505f6002811115610ec057610ebf611410565b5b60025f9054906101000a900460ff166002811115610ee157610ee0611410565b5b14610f18576040517fb521771a00000000000000000000000000000000000000000000000000000000815260040160405180910390fd5b7f00000000000000000000000000000000000000000000000000000000000000004210610f71576040517fb521771a00000000000000000000000000000000000000000000000000000000815260040160405180910390fd5b5f8103610faa576040517fcbca5aa200000000000000000000000000000000000000000000000000000000815260040160405180910390fd5b7f000000000000000000000000000000000000000000000000000000000000000073ffffffffffffffffffffffffffffffffffffffff166323b872dd3330846040518463ffffffff1660e01b815260040161100793929190611793565b6020604051808303815f875af1158015611023573d5f5f3e3d5ffd5b505050506040513d601f19601f820116820180604052508101906110479190611768565b61107d576040517f045c4b0200000000000000000000000000000000000000000000000000000000815260040160405180910390fd5b5f60018111156110905761108f611410565b5b8260018111156110a3576110a2611410565b5b03611118578060065f3373ffffffffffffffffffffffffffffffffffffffff1673ffffffffffffffffffffffffffffffffffffffff1681526020019081526020015f205f8282546110f491906117c8565b925050819055508060035f82825461110c91906117c8565b92505081905550611184565b8060075f3373ffffffffffffffffffffffffffffffffffffffff1673ffffffffffffffffffffffffffffffffffffffff1681526020019081526020015f205f82825461116491906117c8565b925050819055508060045f82825461117c91906117c8565b925050819055505b8060055f82825461119591906117c8565b925050819055508160018111156111af576111ae611410565b5b3373ffffffffffffffffffffffffffffffffffffffff167f435e83f150b2d380baf7500cfbc6f61706ca2cb05603af7dbbaa5572fa3ec6d083846003546004546040516111ff94939291906117fb565b60405180910390a360016009819055505050565b5f73ffffffffffffffffffffffffffffffffffffffff82169050919050565b5f61123c82611213565b9050919050565b61124c81611232565b82525050565b5f6020820190506112655f830184611243565b92915050565b5f81519050919050565b5f82825260208201905092915050565b8281835e5f83830152505050565b5f601f19601f8301169050919050565b5f6112ad8261126b565b6112b78185611275565b93506112c7818560208601611285565b6112d081611293565b840191505092915050565b5f6020820190508181035f8301526112f381846112a3565b905092915050565b5f5ffd5b5f819050919050565b611311816112ff565b811461131b575f5ffd5b50565b5f8135905061132c81611308565b92915050565b5f60208284031215611347576113466112fb565b5b5f6113548482850161131e565b91505092915050565b61136681611232565b8114611370575f5ffd5b50565b5f813590506113818161135d565b92915050565b5f6020828403121561139c5761139b6112fb565b5b5f6113a984828501611373565b91505092915050565b6113bb816112ff565b82525050565b5f8115159050919050565b6113d5816113c1565b82525050565b5f6060820190506113ee5f8301866113b2565b6113fb60208301856113b2565b61140860408301846113cc565b949350505050565b7f4e487b71000000000000000000000000000000000000000000000000000000005f52602160045260245ffd5b6003811061144e5761144d611410565b5b50565b5f81905061145e8261143d565b919050565b5f61146d82611451565b9050919050565b61147d81611463565b82525050565b5f6020820190506114965f830184611474565b92915050565b600381106114ad576114ac611410565b5b50565b5f8190506114bd8261149c565b919050565b5f6114cc826114b0565b9050919050565b6114dc816114c2565b82525050565b5f6020820190506114f55f8301846114d3565b92915050565b5f60208201905061150e5f8301846113cc565b92915050565b5f6020820190506115275f8301846113b2565b92915050565b5f819050919050565b5f61155061154b61154684611213565b61152d565b611213565b9050919050565b5f61156182611536565b9050919050565b5f61157282611557565b9050919050565b61158281611568565b82525050565b5f60208201905061159b5f830184611579565b92915050565b600381106115ad575f5ffd5b50565b5f813590506115be816115a1565b92915050565b5f602082840312156115d9576115d86112fb565b5b5f6115e6848285016115b0565b91505092915050565b7f4e487b71000000000000000000000000000000000000000000000000000000005f52602260045260245ffd5b5f600282049050600182168061163357607f821691505b602082108103611646576116456115ef565b5b50919050565b7f4e487b71000000000000000000000000000000000000000000000000000000005f52601160045260245ffd5b5f611683826112ff565b915061168e836112ff565b925082820261169c816112ff565b915082820484148315176116b3576116b261164c565b5b5092915050565b7f4e487b71000000000000000000000000000000000000000000000000000000005f52601260045260245ffd5b5f6116f1826112ff565b91506116fc836112ff565b92508261170c5761170b6116ba565b5b828204905092915050565b5f60408201905061172a5f830185611243565b61173760208301846113b2565b9392505050565b611747816113c1565b8114611751575f5ffd5b50565b5f815190506117628161173e565b92915050565b5f6020828403121561177d5761177c6112fb565b5b5f61178a84828501611754565b91505092915050565b5f6060820190506117a65f830186611243565b6117b36020830185611243565b6117c060408301846113b2565b949350505050565b5f6117d2826112ff565b91506117dd836112ff565b92508282019050808211156117f5576117f461164c565b5b92915050565b5f60808201905061180e5f8301876113b2565b61181b60208301866113b2565b61182860408301856113b2565b61183560608301846113b2565b9594505050505056fea26469706673582212206774915cd166991014e1a1c0febe073798af846a1d10ce05a333280e2f46892764736f6c634300081c0033","linkReferences":{}},"methodIdentifiers":{"buyNo(uint256)":"58c36e5c","buyYes(uint256)":"061dd98d","claim()":"4e71d92d","claimed(address)":"c884ef83","creator()":"02d05d3f","expirationTime()":"da284dcc","factory()":"c45a0155","getPosition(address)":"16c19739","isExpired()":"2f13b60c","metadataURI()":"03ee438c","noShares(address)":"56bc793e","resolve(uint8)":"a0270dbc","resolvedOutcome()":"1c371e2b","resolver()":"04f3bcec","settlementToken()":"7b9e618d","status()":"200d2ed2","title()":"4a79d50c","totalDeposited()":"ff50abdc","totalNoShares()":"5ae01f82","totalYesShares()":"d31dbc3e","yesShares(address)":"818fa941"},"id":4}