{"abi":[{"type":"constructor","inputs":[],"stateMutability":"nonpayable"},{"type":"function","name":"allMarkets","inputs":[],"outputs":[{"name":"","type":"address[]","internalType":"address[]"}],"stateMutability":"view"},{"type":"function","name":"approvedCreators","inputs":[{"name":"creator","type":"address","internalType":"address"}],"outputs":[{"name":"approved","type":"bool","internalType":"bool"}],"stateMutability":"view"},{"type":"function","name":"approvedResolvers","inputs":[{"name":"resolver","type":"address","internalType":"address"}],"outputs":[{"name":"approved","type":"bool","internalType":"bool"}],"stateMutability":"view"},{"type":"function","name":"createMarket","inputs":[{"name":"settlementToken","type":"address","internalType":"address"},{"name":"resolver","type":"address","internalType":"address"},{"name":"expirationTime","type":"uint256","internalType":"uint256"},{"name":"title","type":"string","internalType":"string"},{"name":"metadataURI","type":"string","internalType":"string"}],"outputs":[{"name":"market","type":"address","internalType":"address"}],"stateMutability":"nonpayable"},{"type":"function","name":"isMarket","inputs":[{"name":"market","type":"address","internalType":"address"}],"outputs":[{"name":"approved","type":"bool","internalType":"bool"}],"stateMutability":"view"},{"type":"function","name":"marketAt","inputs":[{"name":"index","type":"uint256","internalType":"uint256"}],"outputs":[{"name":"","type":"address","internalType":"address"}],"stateMutability":"view"},{"type":"function","name":"marketCount","inputs":[],"outputs":[{"name":"","type":"uint256","internalType":"uint256"}],"stateMutability":"view"},{"type":"function","name":"owner","inputs":[],"outputs":[{"name":"","type":"address","internalType":"address"}],"stateMutability":"view"},{"type":"function","name":"setCreatorApproval","inputs":[{"name":"creator","type":"address","internalType":"address"},{"name":"approved","type":"bool","internalType":"bool"}],"outputs":[],"stateMutability":"nonpayable"},{"type":"function","name":"setResolverApproval","inputs":[{"name":"resolver","type":"address","internalType":"address"},{"name":"approved","type":"bool","internalType":"bool"}],"outputs":[],"stateMutability":"nonpayable"},{"type":"function","name":"transferOwnership","inputs":[{"name":"newOwner","type":"address","internalType":"address"}],"outputs":[],"stateMutability":"nonpayable"},{"type":"event","name":"CreatorApprovalUpdated","inputs":[{"name":"creator","type":"address","indexed":true,"internalType":"address"},{"name":"approved","type":"bool","indexed":false,"internalType":"bool"}],"anonymous":false},{"type":"event","name":"MarketCreated","inputs":[{"name":"market","type":"address","indexed":true,"internalType":"address"},{"name":"creator","type":"address","indexed":true,"internalType":"address"},{"name":"settlementToken","type":"address","indexed":true,"internalType":"address"},{"name":"resolver","type":"address","indexed":false,"internalType":"address"},{"name":"expirationTime","type":"uint256","indexed":false,"internalType":"uint256"},{"name":"title","type":"string","indexed":false,"internalType":"string"},{"name":"metadataURI","type":"string","indexed":false,"internalType":"string"}],"anonymous":false},{"type":"event","name":"OwnershipTransferred","inputs":[{"name":"previousOwner","type":"address","indexed":true,"internalType":"address"},{"name":"newOwner","type":"address","indexed":true,"internalType":"address"}],"anonymous":false},{"type":"event","name":"ResolverApprovalUpdated","inputs":[{"name":"resolver","type":"address","indexed":true,"internalType":"address"},{"name":"approved","type":"bool","indexed":false,"internalType":"bool"}],"anonymous":false},{"type":"error","name":"EmptyTitle","inputs":[]},{"type":"error","name":"InvalidExpiration","inputs":[]},{"type":"error","name":"NotApprovedCreator","inputs":[]},{"type":"error","name":"NotOwner","inputs":[]},{"type":"error","name":"ResolverNotApproved","inputs":[]},{"type":"error","name":"ZeroAddress","inputs":[]}],"bytecode":{"object":"0x608060405234801561000f575f5ffd5b50335f5f6101000a81548173ffffffffffffffffffffffffffffffffffffffff021916908373ffffffffffffffffffffffffffffffffffffffff160217905550600160025f3373ffffffffffffffffffffffffffffffffffffffff1673ffffffffffffffffffffffffffffffffffffffff1681526020019081526020015f205f6101000a81548160ff0219169083151502179055503373ffffffffffffffffffffffffffffffffffffffff165f73ffffffffffffffffffffffffffffffffffffffff167f8be0079c531659141344cd1fd0a4f28419497f9722a3daafe3b4186f6b6457e060405160405180910390a33373ffffffffffffffffffffffffffffffffffffffff167f022f105edb13003ae9b7abdabb9ea0c23acc72407ec6854987dee707d52c3ab26001604051610145919061016c565b60405180910390a2610185565b5f8115159050919050565b61016681610152565b82525050565b5f60208201905061017f5f83018461015d565b92915050565b61332d806101925f395ff3fe608060405234801561000f575f5ffd5b50600436106100a7575f3560e01c8063917844cf1161006f578063917844cf14610177578063c1a01143146101a7578063ea0d5bb5146101c3578063ec979082146101df578063f2fde38b146101fd578063f3c5400614610219576100a7565b806326395225146100ab578063375a7cba146100db57806355232467146100f95780636ec934da146101295780638da5cb5b14610159575b5f5ffd5b6100c560048036038101906100c09190610d08565b610249565b6040516100d29190610dce565b60405180910390f35b6100e36105e9565b6040516100f09190610e9e565b60405180910390f35b610113600480360381019061010e9190610ebe565b610674565b6040516101209190610f03565b60405180910390f35b610143600480360381019061013e9190610ebe565b610691565b6040516101509190610f03565b60405180910390f35b6101616106ae565b60405161016e9190610dce565b60405180910390f35b610191600480360381019061018c9190610ebe565b6106d2565b60405161019e9190610f03565b60405180910390f35b6101c160048036038101906101bc9190610f46565b6106ef565b005b6101dd60048036038101906101d89190610f46565b61087f565b005b6101e7610a0f565b6040516101f49190610f93565b60405180910390f35b61021760048036038101906102129190610ebe565b610a1b565b005b610233600480360381019061022e9190610fac565b610bc1565b6040516102409190610dce565b60405180910390f35b5f60025f3373ffffffffffffffffffffffffffffffffffffffff1673ffffffffffffffffffffffffffffffffffffffff1681526020019081526020015f205f9054906101000a900460ff166102ca576040517fcecc023a00000000000000000000000000000000000000000000000000000000815260040160405180910390fd5b5f73ffffffffffffffffffffffffffffffffffffffff168873ffffffffffffffffffffffffffffffffffffffff16148061032f57505f73ffffffffffffffffffffffffffffffffffffffff168773ffffffffffffffffffffffffffffffffffffffff16145b15610366576040517fd92e233d00000000000000000000000000000000000000000000000000000000815260040160405180910390fd5b60015f8873ffffffffffffffffffffffffffffffffffffffff1673ffffffffffffffffffffffffffffffffffffffff1681526020019081526020015f205f9054906101000a900460ff166103e6576040517fd7eb860500000000000000000000000000000000000000000000000000000000815260040160405180910390fd5b5f8585905003610422576040517fa5bb9bde00000000000000000000000000000000000000000000000000000000815260040160405180910390fd5b42861161045b576040517ffb2a675200000000000000000000000000000000000000000000000000000000815260040160405180910390fd5b5f30338a8a8a8a8a8a8a60405161047190610c05565b61048399989796959493929190611031565b604051809103905ff08015801561049c573d5f5f3e3d5ffd5b509050809150600160035f8473ffffffffffffffffffffffffffffffffffffffff1673ffffffffffffffffffffffffffffffffffffffff1681526020019081526020015f205f6101000a81548160ff021916908315150217905550600482908060018154018082558091505060019003905f5260205f20015f9091909190916101000a81548173ffffffffffffffffffffffffffffffffffffffff021916908373ffffffffffffffffffffffffffffffffffffffff1602179055508873ffffffffffffffffffffffffffffffffffffffff163373ffffffffffffffffffffffffffffffffffffffff168373ffffffffffffffffffffffffffffffffffffffff167fc7faa12e70047515523a6b03690d8925c2f047e68682e35fa05ff42cd180882d8b8b8b8b8b8b6040516105d5969594939291906110b0565b60405180910390a450979650505050505050565b6060600480548060200260200160405190810160405280929190818152602001828054801561066a57602002820191905f5260205f20905b815f9054906101000a900473ffffffffffffffffffffffffffffffffffffffff1673ffffffffffffffffffffffffffffffffffffffff1681526020019060010190808311610621575b5050505050905090565b6002602052805f5260405f205f915054906101000a900460ff1681565b6003602052805f5260405f205f915054906101000a900460ff1681565b5f5f9054906101000a900473ffffffffffffffffffffffffffffffffffffffff1681565b6001602052805f5260405f205f915054906101000a900460ff1681565b5f5f9054906101000a900473ffffffffffffffffffffffffffffffffffffffff1673ffffffffffffffffffffffffffffffffffffffff163373ffffffffffffffffffffffffffffffffffffffff1614610774576040517f30cd747100000000000000000000000000000000000000000000000000000000815260040160405180910390fd5b5f73ffffffffffffffffffffffffffffffffffffffff168273ffffffffffffffffffffffffffffffffffffffff16036107d9576040517fd92e233d00000000000000000000000000000000000000000000000000000000815260040160405180910390fd5b8060015f8473ffffffffffffffffffffffffffffffffffffffff1673ffffffffffffffffffffffffffffffffffffffff1681526020019081526020015f205f6101000a81548160ff0219169083151502179055508173ffffffffffffffffffffffffffffffffffffffff167f0125eeb55ffbb69a490a189e70065ab78131d96cdb2bf8c842efd0aa89c0b2f8826040516108739190610f03565b60405180910390a25050565b5f5f9054906101000a900473ffffffffffffffffffffffffffffffffffffffff1673ffffffffffffffffffffffffffffffffffffffff163373ffffffffffffffffffffffffffffffffffffffff1614610904576040517f30cd747100000000000000000000000000000000000000000000000000000000815260040160405180910390fd5b5f73ffffffffffffffffffffffffffffffffffffffff168273ffffffffffffffffffffffffffffffffffffffff1603610969576040517fd92e233d00000000000000000000000000000000000000000000000000000000815260040160405180910390fd5b8060025f8473ffffffffffffffffffffffffffffffffffffffff1673ffffffffffffffffffffffffffffffffffffffff1681526020019081526020015f205f6101000a81548160ff0219169083151502179055508173ffffffffffffffffffffffffffffffffffffffff167f022f105edb13003ae9b7abdabb9ea0c23acc72407ec6854987dee707d52c3ab282604051610a039190610f03565b60405180910390a25050565b5f600480549050905090565b5f5f9054906101000a900473ffffffffffffffffffffffffffffffffffffffff1673ffffffffffffffffffffffffffffffffffffffff163373ffffffffffffffffffffffffffffffffffffffff1614610aa0576040517f30cd747100000000000000000000000000000000000000000000000000000000815260040160405180910390fd5b5f73ffffffffffffffffffffffffffffffffffffffff168173ffffffffffffffffffffffffffffffffffffffff1603610b05576040517fd92e233d00000000000000000000000000000000000000000000000000000000815260040160405180910390fd5b8073ffffffffffffffffffffffffffffffffffffffff165f5f9054906101000a900473ffffffffffffffffffffffffffffffffffffffff1673ffffffffffffffffffffffffffffffffffffffff167f8be0079c531659141344cd1fd0a4f28419497f9722a3daafe3b4186f6b6457e060405160405180910390a3805f5f6101000a81548173ffffffffffffffffffffffffffffffffffffffff021916908373ffffffffffffffffffffffffffffffffffffffff16021790555050565b5f60048281548110610bd657610bd5611105565b5b905f5260205f20015f9054906101000a900473ffffffffffffffffffffffffffffffffffffffff169050919050565b6121c58061113383390190565b5f5ffd5b5f5ffd5b5f73ffffffffffffffffffffffffffffffffffffffff82169050919050565b5f610c4382610c1a565b9050919050565b610c5381610c39565b8114610c5d575f5ffd5b50565b5f81359050610c6e81610c4a565b92915050565b5f819050919050565b610c8681610c74565b8114610c90575f5ffd5b50565b5f81359050610ca181610c7d565b92915050565b5f5ffd5b5f5ffd5b5f5ffd5b5f5f83601f840112610cc857610cc7610ca7565b5b8235905067ffffffffffffffff811115610ce557610ce4610cab565b5b602083019150836001820283011115610d0157610d00610caf565b5b9250929050565b5f5f5f5f5f5f5f60a0888a031215610d2357610d22610c12565b5b5f610d308a828b01610c60565b9750506020610d418a828b01610c60565b9650506040610d528a828b01610c93565b955050606088013567ffffffffffffffff811115610d7357610d72610c16565b5b610d7f8a828b01610cb3565b9450945050608088013567ffffffffffffffff811115610da257610da1610c16565b5b610dae8a828b01610cb3565b925092505092959891949750929550565b610dc881610c39565b82525050565b5f602082019050610de15f830184610dbf565b92915050565b5f81519050919050565b5f82825260208201905092915050565b5f819050602082019050919050565b610e1981610c39565b82525050565b5f610e2a8383610e10565b60208301905092915050565b5f602082019050919050565b5f610e4c82610de7565b610e568185610df1565b9350610e6183610e01565b805f5b83811015610e91578151610e788882610e1f565b9750610e8383610e36565b925050600181019050610e64565b5085935050505092915050565b5f6020820190508181035f830152610eb68184610e42565b905092915050565b5f60208284031215610ed357610ed2610c12565b5b5f610ee084828501610c60565b91505092915050565b5f8115159050919050565b610efd81610ee9565b82525050565b5f602082019050610f165f830184610ef4565b92915050565b610f2581610ee9565b8114610f2f575f5ffd5b50565b5f81359050610f4081610f1c565b92915050565b5f5f60408385031215610f5c57610f5b610c12565b5b5f610f6985828601610c60565b9250506020610f7a85828601610f32565b9150509250929050565b610f8d81610c74565b82525050565b5f602082019050610fa65f830184610f84565b92915050565b5f60208284031215610fc157610fc0610c12565b5b5f610fce84828501610c93565b91505092915050565b5f82825260208201905092915050565b828183375f83830152505050565b5f601f19601f8301169050919050565b5f6110108385610fd7565b935061101d838584610fe7565b61102683610ff5565b840190509392505050565b5f60e0820190506110445f83018c610dbf565b611051602083018b610dbf565b61105e604083018a610dbf565b61106b6060830189610dbf565b6110786080830188610f84565b81810360a083015261108b818688611005565b905081810360c08301526110a0818486611005565b90509a9950505050505050505050565b5f6080820190506110c35f830189610dbf565b6110d06020830188610f84565b81810360408301526110e3818688611005565b905081810360608301526110f8818486611005565b9050979650505050505050565b7f4e487b71000000000000000000000000000000000000000000000000000000005f52603260045260245ffdfe6101206040526001600955348015610015575f5ffd5b506040516121c53803806121c583398181016040528101906100379190610512565b5f73ffffffffffffffffffffffffffffffffffffffff168773ffffffffffffffffffffffffffffffffffffffff16148061009c57505f73ffffffffffffffffffffffffffffffffffffffff168673ffffffffffffffffffffffffffffffffffffffff16145b806100d257505f73ffffffffffffffffffffffffffffffffffffffff168573ffffffffffffffffffffffffffffffffffffffff16145b15610109576040517fd92e233d00000000000000000000000000000000000000000000000000000000815260040160405180910390fd5b5f73ffffffffffffffffffffffffffffffffffffffff168473ffffffffffffffffffffffffffffffffffffffff160361016e576040517fd92e233d00000000000000000000000000000000000000000000000000000000815260040160405180910390fd5b5f8251036101a8576040517fa5bb9bde00000000000000000000000000000000000000000000000000000000815260040160405180910390fd5b4283116101e1576040517ffb2a675200000000000000000000000000000000000000000000000000000000815260040160405180910390fd5b8673ffffffffffffffffffffffffffffffffffffffff1660808173ffffffffffffffffffffffffffffffffffffffff16815250508573ffffffffffffffffffffffffffffffffffffffff1660a08173ffffffffffffffffffffffffffffffffffffffff16815250508473ffffffffffffffffffffffffffffffffffffffff1660c08173ffffffffffffffffffffffffffffffffffffffff16815250508373ffffffffffffffffffffffffffffffffffffffff1660e08173ffffffffffffffffffffffffffffffffffffffff1681525050826101008181525050815f90816102c891906107ee565b5080600190816102d891906107ee565b505f60025f6101000a81548160ff021916908360028111156102fd576102fc6108bd565b5b02179055505f600260016101000a81548160ff02191690836002811115610327576103266108bd565b5b0217905550505050505050506108ea565b5f604051905090565b5f5ffd5b5f5ffd5b5f73ffffffffffffffffffffffffffffffffffffffff82169050919050565b5f61037282610349565b9050919050565b61038281610368565b811461038c575f5ffd5b50565b5f8151905061039d81610379565b92915050565b5f819050919050565b6103b5816103a3565b81146103bf575f5ffd5b50565b5f815190506103d0816103ac565b92915050565b5f5ffd5b5f5ffd5b5f601f19601f8301169050919050565b7f4e487b71000000000000000000000000000000000000000000000000000000005f52604160045260245ffd5b610424826103de565b810181811067ffffffffffffffff82111715610443576104426103ee565b5b80604052505050565b5f610455610338565b9050610461828261041b565b919050565b5f67ffffffffffffffff8211156104805761047f6103ee565b5b610489826103de565b9050602081019050919050565b8281835e5f83830152505050565b5f6104b66104b184610466565b61044c565b9050828152602081018484840111156104d2576104d16103da565b5b6104dd848285610496565b509392505050565b5f82601f8301126104f9576104f86103d6565b5b81516105098482602086016104a4565b91505092915050565b5f5f5f5f5f5f5f60e0888a03121561052d5761052c610341565b5b5f61053a8a828b0161038f565b975050602061054b8a828b0161038f565b965050604061055c8a828b0161038f565b955050606061056d8a828b0161038f565b945050608061057e8a828b016103c2565b93505060a088015167ffffffffffffffff81111561059f5761059e610345565b5b6105ab8a828b016104e5565b92505060c088015167ffffffffffffffff8111156105cc576105cb610345565b5b6105d88a828b016104e5565b91505092959891949750929550565b5f81519050919050565b7f4e487b71000000000000000000000000000000000000000000000000000000005f52602260045260245ffd5b5f600282049050600182168061063557607f821691505b602082108103610648576106476105f1565b5b50919050565b5f819050815f5260205f209050919050565b5f6020601f8301049050919050565b5f82821b905092915050565b5f600883026106aa7fffffffffffffffffffffffffffffffffffffffffffffffffffffffffffffffff8261066f565b6106b4868361066f565b95508019841693508086168417925050509392505050565b5f819050919050565b5f6106ef6106ea6106e5846103a3565b6106cc565b6103a3565b9050919050565b5f819050919050565b610708836106d5565b61071c610714826106f6565b84845461067b565b825550505050565b5f5f905090565b610733610724565b61073e8184846106ff565b505050565b5b81811015610761576107565f8261072b565b600181019050610744565b5050565b601f8211156107a6576107778161064e565b61078084610660565b8101602085101561078f578190505b6107a361079b85610660565b830182610743565b50505b505050565b5f82821c905092915050565b5f6107c65f19846008026107ab565b1980831691505092915050565b5f6107de83836107b7565b9150826002028217905092915050565b6107f7826105e7565b67ffffffffffffffff8111156108105761080f6103ee565b5b61081a825461061e565b610825828285610765565b5f60209050601f831160018114610856575f8415610844578287015190505b61084e85826107d3565b8655506108b5565b601f1984166108648661064e565b5f5b8281101561088b57848901518255600182019150602085019450602081019050610866565b868310156108a857848901516108a4601f8916826107b7565b8355505b6001600288020188555050505b505050505050565b7f4e487b71000000000000000000000000000000000000000000000000000000005f52602160045260245ffd5b60805160a05160c05160e051610100516118746109515f395f81816105d201528181610c5601528181610e410152610f1a01525f81816104a50152610b6601525f81816109d801528181610b2d0152610fac01525f6103f501525f610dfa01526118745ff3fe608060405234801561000f575f5ffd5b5060043610610135575f3560e01c806356bc793e116100b6578063a0270dbc1161007a578063a0270dbc1461032f578063c45a01551461034b578063c884ef8314610369578063d31dbc3e14610399578063da284dcc146103b7578063ff50abdc146103d557610135565b806356bc793e1461027757806358c36e5c146102a75780635ae01f82146102c35780637b9e618d146102e1578063818fa941146102ff57610135565b80631c371e2b116100fd5780631c371e2b146101e1578063200d2ed2146101ff5780632f13b60c1461021d5780634a79d50c1461023b5780634e71d92d1461025957610135565b806302d05d3f1461013957806303ee438c1461015757806304f3bcec14610175578063061dd98d1461019357806316c19739146101af575b5f5ffd5b6101416103f3565b60405161014e9190611252565b60405180910390f35b61015f610417565b60405161016c91906112db565b60405180910390f35b61017d6104a3565b60405161018a9190611252565b60405180910390f35b6101ad60048036038101906101a89190611332565b6104c7565b005b6101c960048036038101906101c49190611387565b6104d4565b6040516101d8939291906113db565b60405180910390f35b6101e96105aa565b6040516101f69190611483565b60405180910390f35b6102076105bd565b60405161021491906114e2565b60405180910390f35b6102256105cf565b60405161023291906114fb565b60405180910390f35b6102436105f9565b60405161025091906112db565b60405180910390f35b610261610684565b60405161026e9190611514565b60405180910390f35b610291600480360381019061028c9190611387565b610b02565b60405161029e9190611514565b60405180910390f35b6102c160048036038101906102bc9190611332565b610b17565b005b6102cb610b25565b6040516102d89190611514565b60405180910390f35b6102e9610b2b565b6040516102f69190611588565b60405180910390f35b61031960048036038101906103149190611387565b610b4f565b6040516103269190611514565b60405180910390f35b610349600480360381019061034491906115c4565b610b64565b005b610353610df8565b6040516103609190611252565b60405180910390f35b610383600480360381019061037e9190611387565b610e1c565b60405161039091906114fb565b60405180910390f35b6103a1610e39565b6040516103ae9190611514565b60405180910390f35b6103bf610e3f565b6040516103cc9190611514565b60405180910390f35b6103dd610e63565b6040516103ea9190611514565b60405180910390f35b7f000000000000000000000000000000000000000000000000000000000000000081565b600180546104249061161c565b80601f01602080910402602001604051908101604052809291908181526020018280546104509061161c565b801561049b5780601f106104725761010080835404028352916020019161049b565b820191905f5260205f20905b81548152906001019060200180831161047e57829003601f168201915b505050505081565b7f000000000000000000000000000000000000000000000000000000000000000081565b6104d15f82610e69565b50565b5f5f5f60065f8573ffffffffffffffffffffffffffffffffffffffff1673ffffffffffffffffffffffffffffffffffffffff1681526020019081526020015f205460075f8673ffffffffffffffffffffffffffffffffffffffff1673ffffffffffffffffffffffffffffffffffffffff1681526020019081526020015f205460085f8773ffffffffffffffffffffffffffffffffffffffff1673ffffffffffffffffffffffffffffffffffffffff1681526020019081526020015f205f9054906101000a900460ff169250925092509193909250565b600260019054906101000a900460ff1681565b60025f9054906101000a900460ff1681565b5f7f0000000000000000000000000000000000000000000000000000000000000000421015905090565b5f80546106059061161c565b80601f01602080910402602001604051908101604052809291908181526020018280546106319061161c565b801561067c5780601f106106535761010080835404028352916020019161067c565b820191905f5260205f20905b81548152906001019060200180831161065f57829003601f168201915b505050505081565b5f6001600954146106c1576040517fab143c0600000000000000000000000000000000000000000000000000000000815260040160405180910390fd5b6002600981905550600160028111156106dd576106dc611410565b5b60025f9054906101000a900460ff1660028111156106fe576106fd611410565b5b14610735576040517f671eb0c500000000000000000000000000000000000000000000000000000000815260040160405180910390fd5b60085f3373ffffffffffffffffffffffffffffffffffffffff1673ffffffffffffffffffffffffffffffffffffffff1681526020019081526020015f205f9054906101000a900460ff16156107b6576040517f646cf55800000000000000000000000000000000000000000000000000000000815260040160405180910390fd5b5f5f600160028111156107cc576107cb611410565b5b600260019054906101000a900460ff1660028111156107ee576107ed611410565b5b0361083d5760065f3373ffffffffffffffffffffffffffffffffffffffff1673ffffffffffffffffffffffffffffffffffffffff1681526020019081526020015f2054915060035490506108f4565b6002808111156108505761084f611410565b5b600260019054906101000a900460ff16600281111561087257610871611410565b5b036108c15760075f3373ffffffffffffffffffffffffffffffffffffffff1673ffffffffffffffffffffffffffffffffffffffff1681526020019081526020015f2054915060045490506108f3565b6040517fc74a206d00000000000000000000000000000000000000000000000000000000815260040160405180910390fd5b5b5f810361092d576040517f843f941b00000000000000000000000000000000000000000000000000000000815260040160405180910390fd5b5f8203610966576040517f969bf72800000000000000000000000000000000000000000000000000000000815260040160405180910390fd5b600160085f3373ffffffffffffffffffffffffffffffffffffffff1673ffffffffffffffffffffffffffffffffffffffff1681526020019081526020015f205f6101000a81548160ff02191690831515021790555080600554836109ca9190611679565b6109d491906116e7565b92507f000000000000000000000000000000000000000000000000000000000000000073ffffffffffffffffffffffffffffffffffffffff1663a9059cbb33856040518363ffffffff1660e01b8152600401610a31929190611717565b6020604051808303815f875af1158015610a4d573d5f5f3e3d5ffd5b505050506040513d601f19601f82011682018060405250810190610a719190611768565b610aa7576040517f045c4b0200000000000000000000000000000000000000000000000000000000815260040160405180910390fd5b3373ffffffffffffffffffffffffffffffffffffffff167f1a31e733a172afcf46074b3106c17f0c298e226442682a03c1e99ce256139ec284604051610aed9190611514565b60405180910390a25050600160098190555090565b6007602052805f5260405f205f915090505481565b610b22600182610e69565b50565b60045481565b7f000000000000000000000000000000000000000000000000000000000000000081565b6006602052805f5260405f205f915090505481565b7f000000000000000000000000000000000000000000000000000000000000000073ffffffffffffffffffffffffffffffffffffffff163373ffffffffffffffffffffffffffffffffffffffff1614610be9576040517f66fba97000000000000000000000000000000000000000000000000000000000815260040160405180910390fd5b5f6002811115610bfc57610bfb611410565b5b60025f9054906101000a900460ff166002811115610c1d57610c1c611410565b5b14610c54576040517faa43cb2d00000000000000000000000000000000000000000000000000000000815260040160405180910390fd5b7f0000000000000000000000000000000000000000000000000000000000000000421015610cae576040517f671eb0c500000000000000000000000000000000000000000000000000000000815260040160405180910390fd5b60016002811115610cc257610cc1611410565b5b816002811115610cd557610cd4611410565b5b14158015610d075750600280811115610cf157610cf0611410565b5b816002811115610d0457610d03611410565b5b14155b15610d3e576040517fc74a206d00000000000000000000000000000000000000000000000000000000815260040160405180910390fd5b600160025f6101000a81548160ff02191690836002811115610d6357610d62611410565b5b021790555080600260016101000a81548160ff02191690836002811115610d8d57610d8c611410565b5b0217905550806002811115610da557610da4611410565b5b3373ffffffffffffffffffffffffffffffffffffffff167fa6ad0a6c1148f1c08aa1bc9d34e8b40bfc194f8ae52c906898ba76f637097737600554604051610ded9190611514565b60405180910390a350565b7f000000000000000000000000000000000000000000000000000000000000000081565b6008602052805f5260405f205f915054906101000a900460ff1681565b60035481565b7f000000000000000000000000000000000000000000000000000000000000000081565b60055481565b600160095414610ea5576040517fab143c0600000000000000000000000000000000000000000000000000000000815260040160405180910390fd5b60026009819055505f6002811115610ec057610ebf611410565b5b60025f9054906101000a900460ff166002811115610ee157610ee0611410565b5b14610f18576040517fb521771a00000000000000000000000000000000000000000000000000000000815260040160405180910390fd5b7f00000000000000000000000000000000000000000000000000000000000000004210610f71576040517fb521771a00000000000000000000000000000000000000000000000000000000815260040160405180910390fd5b5f8103610faa576040517fcbca5aa200000000000000000000000000000000000000000000000000000000815260040160405180910390fd5b7f000000000000000000000000000000000000000000000000000000000000000073ffffffffffffffffffffffffffffffffffffffff166323b872dd3330846040518463ffffffff1660e01b815260040161100793929190611793565b6020604051808303815f875af1158015611023573d5f5f3e3d5ffd5b505050506040513d601f19601f820116820180604052508101906110479190611768565b61107d576040517f045c4b0200000000000000000000000000000000000000000000000000000000815260040160405180910390fd5b5f60018111156110905761108f611410565b5b8260018111156110a3576110a2611410565b5b03611118578060065f3373ffffffffffffffffffffffffffffffffffffffff1673ffffffffffffffffffffffffffffffffffffffff1681526020019081526020015f205f8282546110f491906117c8565b925050819055508060035f82825461110c91906117c8565b92505081905550611184565b8060075f3373ffffffffffffffffffffffffffffffffffffffff1673ffffffffffffffffffffffffffffffffffffffff1681526020019081526020015f205f82825461116491906117c8565b925050819055508060045f82825461117c91906117c8565b925050819055505b8060055f82825461119591906117c8565b925050819055508160018111156111af576111ae611410565b5b3373ffffffffffffffffffffffffffffffffffffffff167f435e83f150b2d380baf7500cfbc6f61706ca2cb05603af7dbbaa5572fa3ec6d083846003546004546040516111ff94939291906117fb565b60405180910390a360016009819055505050565b5f73ffffffffffffffffffffffffffffffffffffffff82169050919050565b5f61123c82611213565b9050919050565b61124c81611232565b82525050565b5f6020820190506112655f830184611243565b92915050565b5f81519050919050565b5f82825260208201905092915050565b8281835e5f83830152505050565b5f601f19601f8301169050919050565b5f6112ad8261126b565b6112b78185611275565b93506112c7818560208601611285565b6112d081611293565b840191505092915050565b5f6020820190508181035f8301526112f381846112a3565b905092915050565b5f5ffd5b5f819050919050565b611311816112ff565b811461131b575f5ffd5b50565b5f8135905061132c81611308565b92915050565b5f60208284031215611347576113466112fb565b5b5f6113548482850161131e565b91505092915050565b61136681611232565b8114611370575f5ffd5b50565b5f813590506113818161135d565b92915050565b5f6020828403121561139c5761139b6112fb565b5b5f6113a984828501611373565b91505092915050565b6113bb816112ff565b82525050565b5f8115159050919050565b6113d5816113c1565b82525050565b5f6060820190506113ee5f8301866113b2565b6113fb60208301856113b2565b61140860408301846113cc565b949350505050565b7f4e487b71000000000000000000000000000000000000000000000000000000005f52602160045260245ffd5b6003811061144e5761144d611410565b5b50565b5f81905061145e8261143d565b919050565b5f61146d82611451565b9050919050565b61147d81611463565b82525050565b5f6020820190506114965f830184611474565b92915050565b600381106114ad576114ac611410565b5b50565b5f8190506114bd8261149c565b919050565b5f6114cc826114b0565b9050919050565b6114dc816114c2565b82525050565b5f6020820190506114f55f8301846114d3565b92915050565b5f60208201905061150e5f8301846113cc565b92915050565b5f6020820190506115275f8301846113b2565b92915050565b5f819050919050565b5f61155061154b61154684611213565b61152d565b611213565b9050919050565b5f61156182611536565b9050919050565b5f61157282611557565b9050919050565b61158281611568565b82525050565b5f60208201905061159b5f830184611579565b92915050565b600381106115ad575f5ffd5b50565b5f813590506115be816115a1565b92915050565b5f602082840312156115d9576115d86112fb565b5b5f6115e6848285016115b0565b91505092915050565b7f4e487b71000000000000000000000000000000000000000000000000000000005f52602260045260245ffd5b5f600282049050600182168061163357607f821691505b602082108103611646576116456115ef565b5b50919050565b7f4e487b71000000000000000000000000000000000000000000000000000000005f52601160045260245ffd5b5f611683826112ff565b915061168e836112ff565b925082820261169c816112ff565b915082820484148315176116b3576116b261164c565b5b5092915050565b7f4e487b71000000000000000000000000000000000000000000000000000000005f52601260045260245ffd5b5f6116f1826112ff565b91506116fc836112ff565b92508261170c5761170b6116ba565b5b828204905092915050565b5f60408201905061172a5f830185611243565b61173760208301846113b2565b9392505050565b611747816113c1565b8114611751575f5ffd5b50565b5f815190506117628161173e565b92915050565b5f6020828403121561177d5761177c6112fb565b5b5f61178a84828501611754565b91505092915050565b5f6060820190506117a65f830186611243565b6117b36020830185611243565b6117c060408301846113b2565b949350505050565b5f6117d2826112ff565b91506117dd836112ff565b92508282019050808211156117f5576117f461164c565b5b92915050565b5f60808201905061180e5f8301876113b2565b61181b60208301866113b2565b61182860408301856113b2565b61183560608301846113b2565b9594505050505056fea26469706673582212206774915cd166991014e1a1c0febe073798af846a1d10ce05a333280e2f46892764736f6c634300081c0033a26469706673582212204505407aef02e83a33b0957c410af370c9c941125e57ace6436b8be8c931970b64736f6c634300081c0033","linkReferences":{}},"methodIdentifiers":{"allMarkets()":"375a7cba","approvedCreators(address)":"55232467","approvedResolvers(address)":"917844cf","createMarket(address,address,uint256,string,string)":"26395225","isMarket(address)":"6ec934da","marketAt(uint256)":"f3c54006","marketCount()":"ec979082","owner()":"8da5cb5b","setCreatorApproval(address,bool)":"ea0d5bb5","setResolverApproval(address,bool)":"c1a01143","transferOwnership(address)":"f2fde38b"},"id":3}